:100000000C9462000C948A000C948A000C948A0070
:100010000C948A000C948A000C948A000C948A0038
:100020000C948A000C948A000C948A000C948A0028
:100030000C948A000C948A000C948A000C948A0018
:100040000C94B9040C948A000C9487040C946104F9
:100050000C948A000C948A000C948A000C948A00F8
:100060000C948A000C948A000000000024002700F1
:100070002A0000000000250028002B0000000000DE
:1000800023002600290004040404040404040202DA
:100090000202020203030303030301020408102007
:1000A0004080010204081020010204081020000012
:1000B0000008000201000003040700000000000027
:1000C0000000030511241FBECFEFD8E0DEBFCDBF77
:1000D00011E0A0E0B1E0EAE0FFE002C005900D927F
:1000E000A638B107D9F722E0A6E8B1E001C01D9219
:1000F000AC34B207E1F710E0C2E6D0E004C02197CB
:10010000FE010E947D07C136D107C9F70E944D0547
:100110000C9483070C940000AF92BF92CF92DF92B1
:10012000EF92FF920F931F93CF93DF936C017B01AC
:100130008B01040F151FEB015E01AE18BF08C0173D
:10014000D10759F06991D601ED91FC910190F081B0
:10015000E02DC6010995892B79F7C501DF91CF9173
:100160001F910F91FF90EF90DF90CF90BF90AF90D5
:100170000895FC01538D448D252F30E0842F90E0AD
:10018000821B930B541710F0CF9608950197089592
:10019000FC01918D828D981761F0A28DAE0FBF2F5B
:1001A000B11D5D968C91928D9F5F9F73928F90E0B1
:1001B00008958FEF9FEF0895FC01918D828D981720
:1001C00031F0828DE80FF11D858D90E008958FEF5D
:1001D0009FEF0895FC01918D228D892F90E0805C26
:1001E0009F4F821B91098F739927089587E991E0AA
:1001F0000E94EA0021E0892B09F420E0822F089573
:1002000080E090E0892B29F00E94F60081110C9487
:1002100000000895FC01A48DA80FB92FB11DA35AA9
:10022000BF4F2C91848D90E001968F739927848F16
:10023000A689B7892C93A089B1898C918370806439
:100240008C93938D848D981306C00288F389E02DDA
:1002500080818F7D80830895EF92FF920F931F938B
:10026000CF93DF93EC0181E0888F9B8D8C8D981369
:100270001AC0E889F989808185FF15C09FB7F89475
:10028000EE89FF896083E889F989808183708064C1
:1002900080839FBF81E090E0DF91CF911F910F910C
:1002A000FF90EF900895F62E0B8D10E00F5F1F4F1B
:1002B0000F731127E02E8C8D8E110CC00FB607FC2A
:1002C000FACFE889F989808185FFF5CFCE010E94B8
:1002D0000A01F1CFEB8DEC0FFD2FF11DE35AFF4F1B
:1002E000F0829FB7F8940B8FEA89FB898081806246
:1002F000CFCFCF93DF93EC01888D8823B9F0AA8903
:10030000BB89E889F9898C9185FD03C0808186FDD0
:100310000DC00FB607FCF7CF8C9185FFF2CF80811F
:1003200085FFEDCFCE010E940A01E9CFDF91CF9189
:100330000895833081F028F4813099F08230A9F05B
:1003400008958730A9F08830C9F08430B1F48091E5
:1003500080008F7D03C0809180008F778093800024
:10036000089584B58F7784BD089584B58F7DFBCFC4
:100370008091B0008F778093B00008958091B00095
:100380008F7DF9CFCF93DF93282F30E0F901E2552D
:10039000FF4F8491F901E656FF4FD491F901EA57D6
:1003A000FF4FC491CC23A1F081110E949901EC2F41
:1003B000F0E0EE0FFF1FE458FF4FA591B491EC91D0
:1003C000ED2381E090E009F480E0DF91CF91089582
:1003D00080E090E0FACF1F93CF93DF93282F30E097
:1003E000F901E255FF4F8491F901E656FF4FD49190
:1003F000F901EA57FF4FC491CC23A9F0162F8111C0
:100400000E949901EC2FF0E0EE0FFF1FEE58FF4F16
:10041000A591B4918FB7F894EC91111108C0D095C3
:10042000DE23DC938FBFDF91CF911F910895DE2BE8
:10043000F8CFCF93DF9390E0FC01E656FF4F249175
:100440008A579F4FFC0184918823C9F090E0880F60
:10045000991FFC01E859FF4FA591B491FC01EE589A
:10046000FF4FC591D49161110DC09FB7F8948C9145
:10047000209582238C938881282328839FBFDF9136
:10048000CF910895623051F49FB7F8943C91822F38
:10049000809583238C93E8812E2BEFCF8FB7F89430
:1004A000EC912E2B2C938FBFEACF3FB7F89480911D
:1004B0008B0190918C01A0918D01B0918E0126B598
:1004C000A89B05C02F3F19F00196A11DB11D3FBF8C
:1004D000BA2FA92F982F8827BC01CD01620F711D5B
:1004E000811D911D42E0660F771F881F991F4A9555
:1004F000D1F708958F929F92AF92BF92CF92DF92E1
:10050000EF92FF924B015C010E9455026B017C014E
:100510000E9455026C197D098E099F09683E73403F
:1005200081059105A8F321E0821A9108A108B1087C
:1005300088EEC80E83E0D81EE11CF11C81149104E2
:10054000A104B10429F7FF90EF90DF90CF90BF9006
:10055000AF909F908F900895089590E080E0089567
:100560008F929F92AF92BF920F931F93CF93DF937F
:10057000CDB7DEB7A1970FB6F894DEBF0FBECDBFE3
:1005800019A2423008F44AE08E010F5D1F4F842EFD
:10059000912CB12CA12CA50194010E944507E62FB6
:1005A000B901CA01EA3044F5E05DD801EE938D014E
:1005B000232B242B252B79F790E080E0109769F00E
:1005C000FD0101900020E9F73197AF014A1B5B0B59
:1005D000BD0184E392E00E948C00A1960FB6F894CE
:1005E000DEBF0FBECDBFDF91CF911F910F91BF90A6
:1005F000AF909F908F900895E95CD7CFFC01019058
:100600000020E9F73197AF01481B590BBC0184E387
:1006100092E00C948C00CF93DF93EC0160E08E812C
:100620000E94EB0161E08E810E94EB0160E08E810F
:100630000E94EB018BE891E00197F1F7DF91CF91F8
:100640000895CF92DF92EF92FF920F931F93CF9373
:10065000DF936C017C0187E0E80EF11CD0E0C0E084
:10066000062F10E0B8010C2E02C0759567950A940C
:10067000E2F76170F70181917F010E94EB01219601
:10068000C430D10579F7C601DF91CF911F910F9149
:10069000FF90EF90DF90CF900C940B03CF92DF92FE
:1006A000EF92FF920F931F93CF93DF93EC01F62EFF
:1006B000642F8C810E94EB018D818F3F19F060E0E7
:1006C0000E94EB010F2D10E08F8584FF25C06E0185
:1006D00087E0C80ED11CF12CE12CB8010E2C02C011
:1006E000759567950A94E2F76170F60181916F0143
:1006F0000E94EB01FFEFEF1AFF0A88E0E816F10411
:1007000061F7CE01DF91CF911F910F91FF90EF9094
:10071000DF90CF900C940B03B80184E0759567953A
:100720008A95E1F7CE010E9421036F2DCE01DF9162
:10073000CF911F910F91FF90EF90DF90CF900C948D
:10074000210340E0682F84E392E00C944E03CF93A2
:10075000DF93823029F49091430298609093430292
:10076000809347021092480280E48093490280E11E
:1007700080934A0280E580934B0261E080913802C9
:100780000E941902809139028F3F19F061E00E94A6
:10079000190261E080913A020E941902C4E3D2E09A
:1007A0009E01245332408091430284FD0BC084E0BB
:1007B00090E021962817390744F461E08E810E9469
:1007C0001902EECF88E090E0F4CF8BE39DE0019733
:1007D000F1F760E0809138020E94EB0160E08091C7
:1007E0003A020E94EB01809139028F3F19F060E0DC
:1007F0000E94EB018091430284FD39C063E084E3F1
:1008000092E00E942103CBE4D6E4CE010197F1F7F8
:1008100063E084E392E00E9421032197F1F763E013
:1008200084E392E00E94210383E592E00197F1F7CF
:1008300062E084E392E00E9421038091430280629F
:100840000E94A10384E0809344028CE00E94A103F3
:1008500081E00E94A1038BE39FE10197F1F782E021
:100860008093450286E0DF91CF910C94A1038062D2
:100870000E94A1038BE496E40197F1F78091430273
:1008800080620E94A10383E592E00197F1F78091D5
:10089000430280620E94A103D0CF90914702891742
:1008A00010F08FEF890FE82FF0E0EC5CFD4F8489AA
:1008B00080680C94A10341E00E944E0381E090E027
:1008C00008951F920F920FB60F9211242F933F930A
:1008D0004F935F936F937F938F939F93AF93BF9348
:1008E000EF93FF9387E991E00E940A01FF91EF9156
:1008F000BF91AF919F918F917F916F915F914F9138
:100900003F912F910F900FBE0F901F9018951F923F
:100910000F920FB60F9211242F938F939F93EF9303
:10092000FF93E091A701F091A8018081E091AD01D2
:10093000F091AE0182FD1BC090818091B0018F5F6C
:100940008F732091B101821741F0E091B001F0E086
:10095000E956FE4F958F8093B001FF91EF919F91E3
:100960008F912F910F900FBE0F901F90189580813F
:10097000F4CF1F920F920FB60F9211242F933F9333
:100980008F939F93AF93BF9380918701909188013C
:10099000A0918901B0918A013091860123E0230F53
:1009A0002D3758F50196A11DB11D20938601809326
:1009B000870190938801A0938901B0938A01809167
:1009C0008B0190918C01A0918D01B0918E010196C7
:1009D000A11DB11D80938B0190938C01A0938D017B
:1009E000B0938E01BF91AF919F918F913F912F91C5
:1009F0000F900FBE0F901F90189526E8230F0296B8
:100A0000A11DB11DD2CFE7E9F1E01382128288EE79
:100A100093E0A0E0B0E084839583A683B78384E06D
:100A200091E09183808385EC90E09587848784ECC6
:100A300090E09787868780EC90E0918B808B81ECAB
:100A400090E0938B828B82EC90E0958B848B86EC8C
:100A500090E0978B868B118E128E138E148EE4E3AA
:100A6000F2E01382128286E191E09183808382E03A
:100A700084838FEF858383E0868384E0878385E0AA
:100A8000808786E0818787E08287138614861586B3
:100A90001686178681E00C94A703789484B582604B
:100AA00084BD84B5816084BD85B5826085BD85B512
:100AB000816085BD80916E00816080936E00109290
:100AC000810080918100826080938100809181000B
:100AD000816080938100809180008160809380009C
:100AE0008091B10084608093B1008091B0008160FA
:100AF0008093B00080917A00846080937A00809126
:100B00007A00826080937A0080917A00816080937D
:100B10007A0080917A00806880937A001092C100F8
:100B2000E091A701F091A80182E08083E091A30108
:100B3000F091A4011082E091A501F091A6018FEC43
:100B400080831092AF01E091AB01F091AC0186E09F
:100B50008083E091A901F091AA0180818061808366
:100B6000E091A901F091AA01808188608083E091E1
:100B7000A901F091AA01808180688083E091A90198
:100B8000F091AA0180818F7D808360E08EE00E94D9
:100B9000190262E08FE00E94190262E080E10E9487
:100BA000190262E081E10E94190261E08BE00E947B
:100BB000190261E08AE00E94190261E089E00E9466
:100BC000190282E00E94A70380E00E944D048EE19A
:100BD00091E00E94FE0281E00E944D048DE291E0CE
:100BE0000E94FE0260ED77E080E090E00E947A02D1
:100BF00081E00E94A1038BE39FE10197F1F7442478
:100C00004A9483E0582E612C712C90E0E92E90E0FC
:100C1000F92ECC24C394D12C80E480937C00809165
:100C20007A00806480937A0080917A0086FDFCCF00
:100C30008091780000917900102F082F1093960171
:100C4000009395012FEF30E0D8010E947607A301B1
:100C500092010E942607322E232EC22FD32FD0932B
:100C60009401C093930124E630E0D8010E947607F6
:100C7000A30192010E9426073093920120939101D3
:100C800061E08BE00E941902209709F094C060E0B7
:100C90008BE00E94EB0180E00E944D0482E491E031
:100CA0000E94FE028090910190909201092C000C0C
:100CB000AA08BB084AE0C501B401B7FE0EC041E076
:100CC0006DE284E392E00E944E0366277727CB0112
:100CD000681979098A099B094AE00E94B0028FE4E9
:100CE00091E00E94FE028FE00E94C201892B21F454
:100CF000D0929001C0928F0180E10E94C201892BA5
:100D000021F41092900110928F0181E10E94C201A2
:100D1000892B31F482E090E09093900180938F01D1
:100D200081E00E944D0480918F0190919001892B68
:100D300061F483E591E00E94FE0260E08AE00E9497
:100D4000EB0160E089E00E94EB0180918F019091BE
:100D50009001019761F484E691E00E94FE0261E057
:100D60008AE00E94EB0160E089E00E94EB01809143
:100D70008F0190919001029761F485E791E00E94C4
:100D8000FE0260E08AE00E94EB0161E089E00E94DF
:100D9000EB0168E270E080E090E00E947A02E114EA
:100DA000F10409F439CF0E94F600882309F434CF06
:100DB0000E94000031CFCF3FD10511F461E068CF30
:100DC000E9EBF0E08491833029F140F48130C1F007
:100DD0008230D9F0C038D1058CF759CF873031F146
:100DE000883061F18430B1F7809180008062809317
:100DF0008000832D922D90938B0080938A004BCF9F
:100E000084B5806884BD37BC46CF84B5806284BD1C
:100E100038BC41CF80918000806880938000832D12
:100E2000922D909389008093880035CF8091B000F7
:100E300080688093B0003092B3002DCF8091B000D5
:100E400080628093B0003092B40025CF052E97FBCE
:100E50001EF400940E943D0757FD07D00E944507ED
:100E600007FC03D04EF40C943D0750954095309507
:100E700021953F4F4F4F5F4F089590958095709506
:100E800061957F4F8F4F9F4F0895A1E21A2EAA1BA5
:100E9000BB1BFD010DC0AA1FBB1FEE1FFF1FA2172A
:100EA000B307E407F50720F0A21BB30BE40BF50B27
:100EB000661F771F881F991F1A9469F760957095B0
:100EC000809590959B01AC01BD01CF010895A29F33
:100ED000B001B39FC001A39F700D811D1124911D0E
:100EE000B29F700D811D1124911D08950E94670706
:100EF000B7FF0895821B930B0895EE0FFF1F059017
:0A0F0000F491E02D0994F894FFCF5E
:100F0A00000000002C018C00B9007901EA00C80039
:100F1A00DC00000000005B048C00AD02AC0220572C
:100F2A00454C434F4D4520546F204D790042656C26
:100F3A006965662047726F75702050726F6A6563C3
:100F4A00740044757479204379636C653A200025EE
:100F5A0020200020202020202053746F7020202081
:100F6A002020200020202020436C6F636B77697358
:100F7A00652020200020416E7469636C6F636B7773
:060F8A00697365202000E0
:00000001FF
