:020000040000FA
:100000000C9462000C948A000C948A000C948A0070
:100010000C948A000C948A000C948A000C948A0038
:100020000C948A000C948A000C948A000C948A0028
:100030000C948A000C948A000C948A000C948A0018
:100040000C949A030C948A000C948A000C948A00F5
:100050000C948A000C948A000C948A000C948A00F8
:100060000C948A000C948A000000000024002700F1
:100070002A0000000000250028002B0000000000DE
:1000800023002600290004040404040404040202DA
:100090000202020203030303030301020408102007
:1000A0004080010204081020010204081020000012
:1000B0000008000201000003040700000000000027
:1000C00000004C0511241FBECFEFD8E0DEBFCDBF2E
:1000D00011E0A0E0B1E0E2E9FBE002C005900D9282
:1000E000AE34B107D9F721E0AEE4B1E001C01D9212
:1000F000A537B207E1F710E0C2E6D0E004C02197CF
:10010000FE010E94C105C136D107C9F70E94E40370
:100110000C94C7050C940000AF92BF92CF92DF926F
:10012000EF92FF920F931F93CF93DF936C017B01AC
:100130008B01040F151FEB015E01AE18BF08C0173D
:10014000D10759F06991D601ED91FC910190F081B0
:10015000E02DC6010995892B79F7C501DF91CF9173
:100160001F910F91FF90EF90DF90CF90BF90AF90D5
:100170000895833081F028F4813099F08230A9F01D
:1001800008958730A9F08830C9F08430B1F48091A7
:1001900080008F7D03C0809180008F7780938000E6
:1001A000089584B58F7784BD089584B58F7DFBCF86
:1001B0008091B0008F778093B00008958091B00057
:1001C0008F7DF9CFCF93DF93E6EBF0E08491E2EA05
:1001D000F0E0D491EEE8F0E0C491CC23A1F08111DD
:1001E0000E94B900EC2FF0E0EE0FFF1FE458FF4F24
:1001F000A591B491EC91ED2381E090E009F480E0C9
:10020000DF91CF91089580E090E0FACF1F93CF93D4
:10021000DF93282F30E0F901E255FF4F8491F90177
:10022000E656FF4FD491F901EA57FF4FC491CC2312
:10023000A9F0162F81110E94B900EC2FF0E0EE0F0B
:10024000FF1FEE58FF4FA591B4918FB7F894EC9132
:10025000111108C0D095DE23DC938FBFDF91CF91C1
:100260001F910895DE2BF8CFCF93DF9390E0FC0130
:10027000E656FF4F24918A579F4FFC0184918823B3
:10028000D1F090E0880F991FFC01E859FF4FA5912C
:10029000B491FC01EE58FF4FC591D49161110EC08D
:1002A0009FB7F8948C91E22FE0958E238C93288150
:1002B000E223E8839FBFDF91CF9108958FB7F89431
:1002C000EC91E22BEC938FBFF6CF3FB7F89480917F
:1002D0004F0190915001A0915101B091520126B56A
:1002E000A89B05C02F3F19F00196A11DB11D3FBF6E
:1002F000BA2FA92F982F8827BC01CD01620F711D3D
:10030000811D911D42E0660F771F881F991F4A9536
:10031000D1F708958F929F92AF92BF92CF92DF92C2
:10032000EF92FF924B015C010E9465016B017C0121
:100330000E9465016C197D098E099F09683E734012
:1003400081059105A8F321E0821A9108A108B1085E
:1003500088EEC80E83E0D81EE11CF11C81149104C4
:10036000A104B10429F7FF90EF90DF90CF90BF90E8
:10037000AF909F908F900895089590E080E0089549
:100380008F929F92AF92BF920F931F93CF93DF9361
:10039000CDB7DEB7A1970FB6F894DEBF0FBECDBFC5
:1003A00019A2423008F44AE08E010F5D1F4F842EDF
:1003B000912CB12CA12CA50194010E948905E62F56
:1003C000B901CA01EA3044F5E05DD801EE938D0130
:1003D000232B242B252B79F790E080E0109769F0F0
:1003E000FD0101900020E9F73197AF014A1B5B0B3B
:1003F000BD018DE591E00E948C00A1960FB6F894A6
:10040000DEBF0FBECDBFDF91CF911F910F91BF9087
:10041000AF909F908F900895E95CD7CFFC01019039
:100420000020E9F73197AF01481B590BBC018DE55E
:1004300091E00C948C00CF93DF93EC0160E08E810F
:100440000E94060161E08E810E94060160E08E81BB
:100450000E9406018BE891E00197F1F7DF91CF91BF
:100460000895CF92DF92EF92FF920F931F93CF9355
:10047000DF936C017C0187E0E80EF11CD0E0C0E066
:10048000062F10E0B8010C2E02C0759567950A94EE
:10049000E2F76170F70181917F010E9406012196C8
:1004A000C430D10579F7C601DF91CF911F910F912B
:1004B000FF90EF90DF90CF900C941B02CF92DF92D1
:1004C000EF92FF920F931F93CF93DF93EC01F62EE1
:1004D000642F8C810E9406018D818F3F19F060E0AE
:1004E0000E9406010F2D10E08F8584FF25C06E014C
:1004F00087E0C80ED11CF12CE12CB8010E2C02C0F3
:10050000759567950A94E2F76170F60181916F0124
:100510000E940601FFEFEF1AFF0A88E0E816F104D7
:1005200061F7CE01DF91CF911F910F91FF90EF9076
:10053000DF90CF900C941B02B80184E0759567950D
:100540008A95E1F7CE010E9431026F2DCE01DF9135
:10055000CF911F910F91FF90EF90DF90CF900C946F
:10056000310240E0682F8DE591E00C945E02CF935C
:10057000DF93823029F490916C01986090936C0124
:10058000809370011092710180E48093720180E188
:100590008093730180E58093740161E08091610133
:1005A0000E943401809162018F3F19F061E00E9446
:1005B000340161E0809163010E943401CDE5D1E016
:1005C0009E012D55314080916C0184FD0BC084E06B
:1005D00090E021962817390744F461E08E810E944B
:1005E0003401EECF88E090E0F4CF8BE39DE00197FB
:1005F000F1F760E0809161010E94060160E0809166
:1006000063010E940601809162018F3F19F060E052
:100610000E94060180916C0184FD39C063E08DE584
:1006200091E00E943102CBE4D6E4CE010197F1F7CC
:1006300063E08DE591E00E9431022197F1F763E0DC
:100640008DE591E00E94310283E592E00197F1F798
:1006500062E08DE591E00E94310280916C01806240
:100660000E94B10284E080936D018CE00E94B1028F
:1006700081E00E94B1028BE39FE10197F1F782E0F4
:1006800080936E0186E0DF91CF910C94B10280627D
:100690000E94B1028BE496E40197F1F780916C011E
:1006A00080620E94B10283E592E00197F1F78091A8
:1006B0006C0180620E94B102D0CF909170018917C5
:1006C00010F08FEF890FE82FF0E0E35AFE4F848996
:1006D00080680C94B10241E00E945E0281E090E0EB
:1006E0000895CF92DF92EF92FF926C01990FEE087E
:1006F000FF08F7FE16C041E06DE28DE591E00E9433
:100700005E0266277727CB016C197D098E099F0948
:100710004AE00E94C0010196FF90EF90DF90CF90D9
:1007200008954AE0C701B601FF90EF90DF90CF90A7
:100730000C94C0011F920F920FB60F9211242F93A9
:100740003F938F939F93AF93BF9380915301909169
:100750005401A0915501B091560130914E0123E012
:10076000230F2D3758F50196A11DB11D20934E0181
:100770008093530190935401A0935501B093560177
:1007800080914F0190915001A0915101B09152017F
:100790000196A11DB11D80934F0190935001A0932C
:1007A0005101B0935201BF91AF919F918F913F91B1
:1007B0002F910F900FBE0F901F90189526E8230FD2
:1007C0000296A11DB11DD2CF789484B5826084BDFC
:1007D00084B5816084BD85B5826085BD85B5816045
:1007E00085BD80916E00816080936E0010928100C3
:1007F000809181008260809381008091810081607E
:10080000809381008091800081608093800080913E
:10081000B10084608093B1008091B00081608093CA
:10082000B00080917A00846080937A0080917A0091
:10083000826080937A0080917A00816080937A0050
:1008400080917A00806880937A001092C10060E005
:1008500088E00E94340160E08EE00E94340161E093
:100860008BE00E94340182E00E94B70280E00E9487
:100870005D038CE091E00E940E0281E00E945D0326
:1008800089E191E00E940E0268EE73E080E090E062
:100890000E948A0181E00E94B1028BE39FE10197EF
:1008A000F1F744244A9483E0582E612C712C99EB83
:1008B000292E90E0392E20E0822E20E0922E8FB754
:1008C000F894C0905301D0905401E0905501F090FD
:1008D00056018FBF10E0D0E0C0E00E94E200019717
:1008E00009F411E00E94E200892B21F4112311F098
:1008F000219610E02FB7F894809153019091540104
:10090000A0915501B09156012FBF8C199D09AE09D8
:10091000BF09893E9340A105B105F8F28EE18C9F95
:1009200050018D9FB00C1124E0E4E0937C00809195
:100930007A00806480937A0080917A0086FDFCCFF3
:1009400080917800C0917900DC2FC82FD0935C0192
:10095000C0935B012DEC30E0DE010E94BA05A301DB
:1009600092010E946A0569017A01F2E3CF0ED11C5F
:10097000E11CF11C8601D0925A01C092590124E673
:1009800030E0DE010E94BA05A30192010E946A05CF
:100990003093580120935701121613063CF461E07E
:1009A0008BE00E943401C114D10481F560E08BE03A
:1009B0000E94060180E00E945D038FE291E00E94A8
:1009C0000E0280915701909158010E9471038CE3AF
:1009D00091E00E940E0281E00E945D0380E491E0BC
:1009E0000E940E02C5010E94710389E491E00E94F9
:1009F0000E026AE070E080E090E00E948A018114BB
:100A0000910409F45CCF0E94000059CF0F3F1105FB
:100A100011F461E0CCCFF1018491833019F140F4FD
:100A20008130B1F08230C9F00038110594F7BECFA3
:100A3000873011F1883041F18430B1F78091800026
:100A4000806280938000D0928B00C0928A00B2CFE7
:100A500084B5806884BDC7BCADCF84B5806284BDD9
:100A6000C8BCA8CF80918000806880938000D0921D
:100A70008900C09288009ECF8091B00080688093EA
:100A8000B000C092B30096CF8091B0008062809396
:100A9000B000C092B4008ECFEDE5F1E01382128277
:100AA00084E091E09183808382E084838FEF85836B
:100AB00083E0868384E0878385E0808786E0818782
:100AC00087E082871386148615861686178681E04E
:100AD0000C94B702052E97FB1EF400940E9481052A
:100AE00057FD07D00E94890507FC03D04EF40C94F3
:100AF000810550954095309521953F4F4F4F5F4F61
:100B0000089590958095709561957F4F8F4F9F4F79
:100B10000895A1E21A2EAA1BBB1BFD010DC0AA1F3E
:100B2000BB1FEE1FFF1FA217B307E407F50720F056
:100B3000A21BB30BE40BF50B661F771F881F991FD1
:100B40001A9469F760957095809590959B01AC011A
:100B5000BD01CF010895A29FB001B39FC001A39F23
:100B6000700D811D1124911DB29F700D811D1124E6
:100B7000911D08950E94AB05B7FF0895821B930B4A
:100B80000895EE0FFF1F0590F491E02D0994F8945D
:100B9000FFCF000000006B038C00BD01BC0120579B
:100BA000656C636F6D6520546F200042656C6965EC
:100BB000662047726F75702050726F6A656374208B
:100BC0000044757479204379636C653A20002520D0
:100BD000200020202052504D3A20002020200000EC
:107E0000112484B714BE81FFF0D085E080938100F7
:107E100082E08093C00088E18093C10086E0809377
:107E2000C20080E18093C4008EE0C9D0259A86E02C
:107E300020E33CEF91E0309385002093840096BBD3
:107E4000B09BFECF1D9AA8958150A9F7CC24DD24C4
:107E500088248394B5E0AB2EA1E19A2EF3E0BF2EE7
:107E6000A2D0813461F49FD0082FAFD0023811F036
:107E7000013811F484E001C083E08DD089C08234E0
:107E800011F484E103C0853419F485E0A6D080C0E4
:107E9000853579F488D0E82EFF2485D0082F10E0AE
:107EA000102F00270E291F29000F111F8ED06801E7
:107EB0006FC0863521F484E090D080E0DECF843638
:107EC00009F040C070D06FD0082F6DD080E0C81688
:107ED00080E7D80618F4F601B7BEE895C0E0D1E017
:107EE00062D089930C17E1F7F0E0CF16F0E7DF06D8
:107EF00018F0F601B7BEE89568D007B600FCFDCFD4
:107F0000A601A0E0B1E02C9130E011968C91119780
:107F100090E0982F8827822B932B1296FA010C0160
:107F200087BEE89511244E5F5F4FF1E0A038BF0790
:107F300051F7F601A7BEE89507B600FCFDCF97BE46
:107F4000E89526C08437B1F42ED02DD0F82E2BD052
:107F50003CD0F601EF2C8F010F5F1F4F84911BD097
:107F6000EA94F801C1F70894C11CD11CFA94CF0C13
:107F7000D11C0EC0853739F428D08EE10CD085E9AC
:107F80000AD08FE07ACF813511F488E018D01DD067
:107F900080E101D065CF982F8091C00085FFFCCF94
:107FA0009093C60008958091C00087FFFCCF809118
:107FB000C00084FD01C0A8958091C6000895E0E648
:107FC000F0E098E1908380830895EDDF803219F02E
:107FD00088E0F5DFFFCF84E1DECF1F93182FE3DFCA
:107FE0001150E9F7F2DF1F91089580E0E8DFEE27F6
:047FF000FF270994CA
:027FFE00040479
:00000001FF
